

Microchip MPLAB XC8 Assembler V2.30 build 20200825195618 
                                                                                               Wed Oct 14 11:05:38 2020

Microchip MPLAB XC8 C Compiler v2.30 (Free license) build 20200825195618 Og1 
     1                           	processor	18LF4685
     2                           	fnconf	rparam,??,?,0
     3                           	pagewidth 120
     4                           	opt	flic
     5                           	psect	smallconst,global,reloc=2,class=SMALLCONST,delta=1,noexec
     6                           	psect	cinit,global,reloc=2,class=CODE,delta=1
     7                           	psect	bssCOMRAM,global,class=COMRAM,space=1,delta=1,lowdata,noexec
     8                           	psect	cstackCOMRAM,global,class=COMRAM,space=1,delta=1,lowdata,noexec
     9                           	psect	text0,global,reloc=2,class=CODE,delta=1
    10                           	psect	text1,global,reloc=2,class=CODE,delta=1,group=3
    11                           	psect	text2,global,reloc=2,class=CODE,delta=1,group=1
    12                           	psect	text3,global,reloc=2,class=CODE,delta=1,group=1
    13                           	psect	text4,global,reloc=2,class=CODE,delta=1,group=3
    14                           	psect	text5,global,reloc=2,class=CODE,delta=1
    15                           	psect	text6,global,reloc=2,class=CODE,delta=1
    16                           	psect	intsave_regs,global,class=BIGRAM,space=1,delta=1,noexec
    17                           	psect	rparam,global,class=COMRAM,space=1,delta=1,noexec
    18                           	psect	idloc,global,abs,ovrld,class=IDLOC,space=5,delta=1,noexec
    19                           	psect	config,global,abs,ovrld,class=CONFIG,space=4,delta=1,noexec
    20  0000                     
    21                           ; Version 2.20
    22                           ; Generated 12/02/2020 GMT
    23                           ; 
    24                           ; Copyright © 2020, Microchip Technology Inc. and its subsidiaries ("Microchip")
    25                           ; All rights reserved.
    26                           ; 
    27                           ; This software is developed by Microchip Technology Inc. and its subsidiaries ("Microch
      +                          ip").
    28                           ; 
    29                           ; Redistribution and use in source and binary forms, with or without modification, are
    30                           ; permitted provided that the following conditions are met:
    31                           ; 
    32                           ;     1. Redistributions of source code must retain the above copyright notice, this lis
      +                          t of
    33                           ;        conditions and the following disclaimer.
    34                           ; 
    35                           ;     2. Redistributions in binary form must reproduce the above copyright notice, this 
      +                          list
    36                           ;        of conditions and the following disclaimer in the documentation and/or other
    37                           ;        materials provided with the distribution.
    38                           ; 
    39                           ;     3. Microchip's name may not be used to endorse or promote products derived from th
      +                          is
    40                           ;        software without specific prior written permission.
    41                           ; 
    42                           ; THIS SOFTWARE IS PROVIDED BY MICROCHIP "AS IS" AND ANY EXPRESS OR IMPLIED WARRANTIES,
    43                           ; INCLUDING, BUT NOT LIMITED TO, THE IMPLIED WARRANTIES OF MERCHANTABILITY AND FITNESS F
      +                          OR
    44                           ; PURPOSE ARE DISCLAIMED.  IN NO EVENT SHALL MICROCHIP BE LIABLE FOR ANY DIRECT, INDIREC
      +                          T,
    45                           ; INCIDENTAL, SPECIAL, EXEMPLARY, OR CONSEQUENTIAL DAMAGES (INCLUDING BUT NOT LIMITED TO
    46                           ; PROCUREMENT OF SUBSTITUTE GOODS OR SERVICES; LOSS OF USE, DATA OR PROFITS; OR BUSINESS
    47                           ; INTERRUPTION) HOWSOEVER CAUSED AND ON ANY THEORY OF LIABILITY, WHETHER IN CONTRACT, ST
      +                          RICT
    48                           ; LIABILITY, OR TORT (INCLUDING NEGLIGENCE OR OTHERWISE) ARISING IN ANY WAY OUT OF THE U
      +                          SE OF
    49                           ; THIS SOFTWARE, EVEN IF ADVISED OF THE POSSIBILITY OF SUCH DAMAGE.
    50                           ; 
    51                           ; 
    52                           ; Code-generator required, PIC18LF4685 Definitions
    53                           ; 
    54                           ; SFR Addresses
    55  0000                     _TXREG	set	4013
    56  0000                     _PIR1bits	set	3998
    57  0000                     _RCSTAbits	set	4011
    58  0000                     _TXSTAbits	set	4012
    59                           
    60                           	psect	smallconst
    61  000D00                     __psmallconst:
    62                           	callstack 0
    63  000D00  00                 	db	0
    64  000D01                     STR_1:
    65  000D01  48                 	db	72	;'H'
    66  000D02  65                 	db	101	;'e'
    67  000D03  6C                 	db	108	;'l'
    68  000D04  6C                 	db	108	;'l'
    69  000D05  6F                 	db	111	;'o'
    70  000D06  20                 	db	32
    71  000D07  66                 	db	102	;'f'
    72  000D08  72                 	db	114	;'r'
    73  000D09  69                 	db	105	;'i'
    74  000D0A  65                 	db	101	;'e'
    75  000D0B  6E                 	db	110	;'n'
    76  000D0C  64                 	db	100	;'d'
    77  000D0D  73                 	db	115	;'s'
    78  000D0E  0A                 	db	10
    79  000D0F  00                 	db	0
    80  000D10  00                 	db	0	; dummy byte at the end
    81  0000                     
    82                           ; #config settings
    83                           
    84                           	psect	cinit
    85  000F46                     __pcinit:
    86                           	callstack 0
    87  000F46                     start_initialization:
    88                           	callstack 0
    89  000F46                     __initialization:
    90                           	callstack 0
    91                           
    92                           ; Clear objects allocated to COMRAM (40 bytes)
    93  000F46  EE00  F001         	lfsr	0,__pbssCOMRAM
    94  000F4A  0E28               	movlw	40
    95  000F4C                     clear_0:
    96  000F4C  6AEE               	clrf	postinc0,c
    97  000F4E  06E8               	decf	wreg,f,c
    98  000F50  E1FD               	bnz	clear_0
    99  000F52                     end_of_initialization:
   100                           	callstack 0
   101  000F52                     __end_of__initialization:
   102                           	callstack 0
   103  000F52  0E00               	movlw	low (__Lsmallconst shr (0+16))
   104  000F54  6EF8               	movwf	tblptru,c
   105  000F56  0E0D               	movlw	high __Lsmallconst
   106  000F58  6EF7               	movwf	tblptrh,c
   107  000F5A  0100               	movlb	0
   108  000F5C  EF78  F007         	goto	_main	;jump to C main() function
   109                           
   110                           	psect	bssCOMRAM
   111  000001                     __pbssCOMRAM:
   112                           	callstack 0
   113  000001                     	ds	32
   114  000021                     _nout:
   115                           	callstack 0
   116  000021                     	ds	2
   117  000023                     _width:
   118                           	callstack 0
   119  000023                     	ds	2
   120  000025                     _prec:
   121                           	callstack 0
   122  000025                     	ds	2
   123  000027                     _flags:
   124                           	callstack 0
   125  000027                     	ds	2
   126                           
   127                           	psect	cstackCOMRAM
   128  000029                     __pcstackCOMRAM:
   129                           	callstack 0
   130  000029                     putch@data:
   131                           	callstack 0
   132                           
   133                           ; 1 bytes @ 0x0
   134  000029                     	ds	1
   135  00002A                     fputc@c:
   136                           	callstack 0
   137                           
   138                           ; 2 bytes @ 0x1
   139  00002A                     	ds	2
   140  00002C                     fputc@fp:
   141                           	callstack 0
   142                           
   143                           ; 2 bytes @ 0x3
   144  00002C                     	ds	2
   145  00002E                     ??_fputc:
   146                           
   147                           ; 1 bytes @ 0x5
   148  00002E                     	ds	5
   149  000033                     ?_vfpfcnvrt:
   150                           	callstack 0
   151  000033                     vfpfcnvrt@fp:
   152                           	callstack 0
   153                           
   154                           ; 2 bytes @ 0xA
   155  000033                     	ds	2
   156  000035                     vfpfcnvrt@fmt:
   157                           	callstack 0
   158                           
   159                           ; 2 bytes @ 0xC
   160  000035                     	ds	2
   161  000037                     vfpfcnvrt@ap:
   162                           	callstack 0
   163                           
   164                           ; 2 bytes @ 0xE
   165  000037                     	ds	2
   166  000039                     ?_vfprintf:
   167                           	callstack 0
   168  000039                     vfprintf@fp:
   169                           	callstack 0
   170                           
   171                           ; 2 bytes @ 0x10
   172  000039                     	ds	2
   173  00003B                     vfprintf@fmt:
   174                           	callstack 0
   175                           
   176                           ; 2 bytes @ 0x12
   177  00003B                     	ds	2
   178  00003D                     vfprintf@ap:
   179                           	callstack 0
   180                           
   181                           ; 2 bytes @ 0x14
   182  00003D                     	ds	2
   183  00003F                     vfprintf@cfmt:
   184                           	callstack 0
   185                           
   186                           ; 2 bytes @ 0x16
   187  00003F                     	ds	2
   188  000041                     ?_printf:
   189                           	callstack 0
   190  000041                     printf@fmt:
   191                           	callstack 0
   192                           
   193                           ; 2 bytes @ 0x18
   194  000041                     	ds	2
   195  000043                     
   196                           ; 1 bytes @ 0x1A
   197  000043                     	ds	2
   198  000045                     printf@ap:
   199                           	callstack 0
   200                           
   201                           ; 2 bytes @ 0x1C
   202  000045                     	ds	2
   203  000047                     ??_main:
   204                           
   205                           ; 1 bytes @ 0x1E
   206  000047                     	ds	2
   207                           
   208 ;;
   209 ;;Main: autosize = 0, tempsize = 2, incstack = 0, save=0
   210 ;;
   211 ;; *************** function _main *****************
   212 ;; Defined at:
   213 ;;		line 19 in file "main.c"
   214 ;; Parameters:    Size  Location     Type
   215 ;;		None
   216 ;; Auto vars:     Size  Location     Type
   217 ;;		None
   218 ;; Return value:  Size  Location     Type
   219 ;;                  1    wreg      void 
   220 ;; Registers used:
   221 ;;		wreg, fsr1l, fsr1h, fsr2l, fsr2h, status,2, status,0, tblptrl, tblptrh, tblptru, cstack
   222 ;; Tracked objects:
   223 ;;		On entry : 0/0
   224 ;;		On exit  : 0/0
   225 ;;		Unchanged: 0/0
   226 ;; Data sizes:     COMRAM   BANK0   BANK1   BANK2   BANK3   BANK4   BANK5   BANK6   BANK7   BANK8   BANK9  BANK10  BANK1
      +1  BANK12
   227 ;;      Params:         0       0       0       0       0       0       0       0       0       0       0       0       
      +0       0
   228 ;;      Locals:         0       0       0       0       0       0       0       0       0       0       0       0       
      +0       0
   229 ;;      Temps:          2       0       0       0       0       0       0       0       0       0       0       0       
      +0       0
   230 ;;      Totals:         2       0       0       0       0       0       0       0       0       0       0       0       
      +0       0
   231 ;;Total ram usage:        2 bytes
   232 ;; Hardware stack levels required when called:    5
   233 ;; This function calls:
   234 ;;		_init_uart
   235 ;;		_printf
   236 ;; This function is called by:
   237 ;;		Startup code after reset
   238 ;; This function uses a non-reentrant model
   239 ;;
   240                           
   241                           	psect	text0
   242  000EF0                     __ptext0:
   243                           	callstack 0
   244  000EF0                     _main:
   245                           	callstack 26
   246  000EF0                     
   247                           ;main.c: 21:     init_uart();
   248  000EF0  ECBB  F007         	call	_init_uart	;wreg free
   249  000EF4                     l911:
   250                           
   251                           ;main.c: 24:     {;main.c: 25:         printf("Hello friends\n");
   252  000EF4  0E01               	movlw	low STR_1
   253  000EF6  6E41               	movwf	printf@fmt^0,c
   254  000EF8  0E0D               	movlw	high STR_1
   255  000EFA  6E42               	movwf	(printf@fmt+1)^0,c
   256  000EFC  EC90  F007         	call	_printf	;wreg free
   257  000F00                     
   258                           ;main.c: 26:         _delay((unsigned long)((1000)*(20000000/4000.0)));
   259  000F00  0E1A               	movlw	26
   260  000F02  6E48               	movwf	(??_main+1)^0,c
   261  000F04  0E5E               	movlw	94
   262  000F06  6E47               	movwf	??_main^0,c
   263  000F08  0E6E               	movlw	110
   264  000F0A                     u167:
   265  000F0A  2EE8               	decfsz	wreg,f,c
   266  000F0C  D7FE               	bra	u167
   267  000F0E  2E47               	decfsz	??_main^0,f,c
   268  000F10  D7FC               	bra	u167
   269  000F12  2E48               	decfsz	(??_main+1)^0,f,c
   270  000F14  D7FA               	bra	u167
   271  000F16  D000               	nop2	
   272  000F18  EF7A  F007         	goto	l911
   273  000F1C  EF00  F000         	goto	start
   274  000F20                     __end_of_main:
   275                           	callstack 0
   276                           
   277 ;; *************** function _printf *****************
   278 ;; Defined at:
   279 ;;		line 5 in file "C:\Program Files\Microchip\xc8\v2.30\pic\sources\c99\common\printf.c"
   280 ;; Parameters:    Size  Location     Type
   281 ;;  fmt             2   24[COMRAM] PTR const unsigned char 
   282 ;;		 -> STR_1(15), 
   283 ;; Auto vars:     Size  Location     Type
   284 ;;  ap              2   28[COMRAM] PTR void [1]
   285 ;;		 -> ?_printf(2), 
   286 ;;  ret             2    0        int 
   287 ;; Return value:  Size  Location     Type
   288 ;;                  2   24[COMRAM] int 
   289 ;; Registers used:
   290 ;;		wreg, fsr1l, fsr1h, fsr2l, fsr2h, status,2, status,0, tblptrl, tblptrh, tblptru, cstack
   291 ;; Tracked objects:
   292 ;;		On entry : 0/0
   293 ;;		On exit  : 0/0
   294 ;;		Unchanged: 0/0
   295 ;; Data sizes:     COMRAM   BANK0   BANK1   BANK2   BANK3   BANK4   BANK5   BANK6   BANK7   BANK8   BANK9  BANK10  BANK1
      +1  BANK12
   296 ;;      Params:         2       0       0       0       0       0       0       0       0       0       0       0       
      +0       0
   297 ;;      Locals:         4       0       0       0       0       0       0       0       0       0       0       0       
      +0       0
   298 ;;      Temps:          0       0       0       0       0       0       0       0       0       0       0       0       
      +0       0
   299 ;;      Totals:         6       0       0       0       0       0       0       0       0       0       0       0       
      +0       0
   300 ;;Total ram usage:        6 bytes
   301 ;; Hardware stack levels used:    1
   302 ;; Hardware stack levels required when called:    4
   303 ;; This function calls:
   304 ;;		_vfprintf
   305 ;; This function is called by:
   306 ;;		_main
   307 ;; This function uses a non-reentrant model
   308 ;;
   309                           
   310                           	psect	text1
   311  000F20                     __ptext1:
   312                           	callstack 0
   313  000F20                     _printf:
   314                           	callstack 26
   315  000F20  0E43               	movlw	low (?_printf+2)
   316  000F22  6E45               	movwf	printf@ap^0,c
   317  000F24  0E00               	movlw	high (?_printf+2)
   318  000F26  6E46               	movwf	(printf@ap+1)^0,c
   319  000F28  0E00               	movlw	0
   320  000F2A  6E39               	movwf	vfprintf@fp^0,c
   321  000F2C  0E00               	movlw	0
   322  000F2E  6E3A               	movwf	(vfprintf@fp+1)^0,c
   323  000F30  C041  F03B         	movff	printf@fmt,vfprintf@fmt
   324  000F34  C042  F03C         	movff	printf@fmt+1,vfprintf@fmt+1
   325  000F38  0E45               	movlw	low printf@ap
   326  000F3A  6E3D               	movwf	vfprintf@ap^0,c
   327  000F3C  0E00               	movlw	high printf@ap
   328  000F3E  6E3E               	movwf	(vfprintf@ap+1)^0,c
   329  000F40  EC49  F007         	call	_vfprintf	;wreg free
   330  000F44  0012               	return		;funcret
   331  000F46                     __end_of_printf:
   332                           	callstack 0
   333                           
   334 ;; *************** function _vfprintf *****************
   335 ;; Defined at:
   336 ;;		line 1390 in file "C:\Program Files\Microchip\xc8\v2.30\pic\sources\c99\common\doprnt.c"
   337 ;; Parameters:    Size  Location     Type
   338 ;;  fp              2   16[COMRAM] PTR struct _IO_FILE
   339 ;;		 -> NULL(0), 
   340 ;;  fmt             2   18[COMRAM] PTR const unsigned char 
   341 ;;		 -> STR_1(15), 
   342 ;;  ap              2   20[COMRAM] PTR PTR void 
   343 ;;		 -> printf@ap(2), 
   344 ;; Auto vars:     Size  Location     Type
   345 ;;  cfmt            2   22[COMRAM] PTR unsigned char 
   346 ;;		 -> STR_1(15), 
   347 ;; Return value:  Size  Location     Type
   348 ;;                  2   16[COMRAM] int 
   349 ;; Registers used:
   350 ;;		wreg, fsr1l, fsr1h, fsr2l, fsr2h, status,2, status,0, tblptrl, tblptrh, tblptru, cstack
   351 ;; Tracked objects:
   352 ;;		On entry : 0/0
   353 ;;		On exit  : 0/0
   354 ;;		Unchanged: 0/0
   355 ;; Data sizes:     COMRAM   BANK0   BANK1   BANK2   BANK3   BANK4   BANK5   BANK6   BANK7   BANK8   BANK9  BANK10  BANK1
      +1  BANK12
   356 ;;      Params:         6       0       0       0       0       0       0       0       0       0       0       0       
      +0       0
   357 ;;      Locals:         2       0       0       0       0       0       0       0       0       0       0       0       
      +0       0
   358 ;;      Temps:          0       0       0       0       0       0       0       0       0       0       0       0       
      +0       0
   359 ;;      Totals:         8       0       0       0       0       0       0       0       0       0       0       0       
      +0       0
   360 ;;Total ram usage:        8 bytes
   361 ;; Hardware stack levels used:    1
   362 ;; Hardware stack levels required when called:    3
   363 ;; This function calls:
   364 ;;		_vfpfcnvrt
   365 ;; This function is called by:
   366 ;;		_printf
   367 ;; This function uses a non-reentrant model
   368 ;;
   369                           
   370                           	psect	text2
   371  000E92                     __ptext2:
   372                           	callstack 0
   373  000E92                     _vfprintf:
   374                           	callstack 26
   375  000E92                     
   376                           ;C:\Program Files\Microchip\xc8\v2.30\pic\sources\c99\common\doprnt.c: 1390: int vfprint
      +                          f(FILE *fp, const char *fmt, va_list ap);C:\Program Files\Microchip\xc8\v2.30\pic\source
      +                          s\c99\common\doprnt.c: 1391: {;C:\Program Files\Microchip\xc8\v2.30\pic\sources\c99\comm
      +                          on\doprnt.c: 1393:     char *cfmt;;C:\Program Files\Microchip\xc8\v2.30\pic\sources\c99\
      +                          common\doprnt.c: 1395:     cfmt = (char *)fmt;
   377  000E92  C03B  F03F         	movff	vfprintf@fmt,vfprintf@cfmt
   378  000E96  C03C  F040         	movff	vfprintf@fmt+1,vfprintf@cfmt+1
   379  000E9A                     
   380                           ;C:\Program Files\Microchip\xc8\v2.30\pic\sources\c99\common\doprnt.c: 1396:     nout = 
      +                          0;
   381  000E9A  0E00               	movlw	0
   382  000E9C  6E22               	movwf	(_nout+1)^0,c
   383  000E9E  0E00               	movlw	0
   384  000EA0  6E21               	movwf	_nout^0,c
   385                           
   386                           ;C:\Program Files\Microchip\xc8\v2.30\pic\sources\c99\common\doprnt.c: 1397:     while (
      +                          *cfmt) {
   387  000EA2  EF65  F007         	goto	l901
   388  000EA6                     l899:
   389                           
   390                           ;C:\Program Files\Microchip\xc8\v2.30\pic\sources\c99\common\doprnt.c: 1398:         nou
      +                          t += vfpfcnvrt(fp, &cfmt, ap);
   391  000EA6  C039  F033         	movff	vfprintf@fp,vfpfcnvrt@fp
   392  000EAA  C03A  F034         	movff	vfprintf@fp+1,vfpfcnvrt@fp+1
   393  000EAE  0E3F               	movlw	low vfprintf@cfmt
   394  000EB0  6E35               	movwf	vfpfcnvrt@fmt^0,c
   395  000EB2  0E00               	movlw	high vfprintf@cfmt
   396  000EB4  6E36               	movwf	(vfpfcnvrt@fmt+1)^0,c
   397  000EB6  C03D  F037         	movff	vfprintf@ap,vfpfcnvrt@ap
   398  000EBA  C03E  F038         	movff	vfprintf@ap+1,vfpfcnvrt@ap+1
   399  000EBE  EC89  F006         	call	_vfpfcnvrt	;wreg free
   400  000EC2  5033               	movf	?_vfpfcnvrt^0,w,c
   401  000EC4  2621               	addwf	_nout^0,f,c
   402  000EC6  5034               	movf	(?_vfpfcnvrt+1)^0,w,c
   403  000EC8  2222               	addwfc	(_nout+1)^0,f,c
   404  000ECA                     l901:
   405                           
   406                           ;C:\Program Files\Microchip\xc8\v2.30\pic\sources\c99\common\doprnt.c: 1397:     while (
      +                          *cfmt) {
   407  000ECA  C03F  FFF6         	movff	vfprintf@cfmt,tblptrl
   408  000ECE  C040  FFF7         	movff	vfprintf@cfmt+1,tblptrh
   409  000ED2                     	if	0	;tblptru may be non-zero
   410  000ED2                     	endif
   411  000ED2                     	if	0	;tblptru may be non-zero
   412  000ED2                     	endif
   413  000ED2  0008               	tblrd		*
   414  000ED4  50F5               	movf	tablat,w,c
   415  000ED6  0900               	iorlw	0
   416  000ED8  A4D8               	btfss	status,2,c
   417  000EDA  EF71  F007         	goto	u151
   418  000EDE  EF73  F007         	goto	u150
   419  000EE2                     u151:
   420  000EE2  EF53  F007         	goto	l899
   421  000EE6                     u150:
   422  000EE6                     
   423                           ;C:\Program Files\Microchip\xc8\v2.30\pic\sources\c99\common\doprnt.c: 1400:     return 
      +                          nout;
   424  000EE6  C021  F039         	movff	_nout,?_vfprintf
   425  000EEA  C022  F03A         	movff	_nout+1,?_vfprintf+1
   426  000EEE  0012               	return		;funcret
   427  000EF0                     __end_of_vfprintf:
   428                           	callstack 0
   429                           
   430 ;; *************** function _vfpfcnvrt *****************
   431 ;; Defined at:
   432 ;;		line 692 in file "C:\Program Files\Microchip\xc8\v2.30\pic\sources\c99\common\doprnt.c"
   433 ;; Parameters:    Size  Location     Type
   434 ;;  fp              2   10[COMRAM] PTR struct _IO_FILE
   435 ;;		 -> NULL(0), 
   436 ;;  fmt             2   12[COMRAM] PTR PTR unsigned char 
   437 ;;		 -> vfprintf@cfmt(2), 
   438 ;;  ap              2   14[COMRAM] PTR PTR void 
   439 ;;		 -> printf@ap(2), 
   440 ;; Auto vars:     Size  Location     Type
   441 ;;  llu             8    0        unsigned long long 
   442 ;;  ll              8    0        long long 
   443 ;;  f               4    0        long long 
   444 ;;  vp              3    0        PTR void 
   445 ;;  ct              3    0        unsigned char [3]
   446 ;;  cp              3    0        PTR unsigned char 
   447 ;;  i               2    0        int 
   448 ;;  done            2    0        int 
   449 ;;  c               1    0        unsigned char 
   450 ;; Return value:  Size  Location     Type
   451 ;;                  2   10[COMRAM] int 
   452 ;; Registers used:
   453 ;;		wreg, fsr1l, fsr1h, fsr2l, fsr2h, status,2, status,0, tblptrl, tblptrh, tblptru, cstack
   454 ;; Tracked objects:
   455 ;;		On entry : 0/0
   456 ;;		On exit  : 0/0
   457 ;;		Unchanged: 0/0
   458 ;; Data sizes:     COMRAM   BANK0   BANK1   BANK2   BANK3   BANK4   BANK5   BANK6   BANK7   BANK8   BANK9  BANK10  BANK1
      +1  BANK12
   459 ;;      Params:         6       0       0       0       0       0       0       0       0       0       0       0       
      +0       0
   460 ;;      Locals:         0       0       0       0       0       0       0       0       0       0       0       0       
      +0       0
   461 ;;      Temps:          0       0       0       0       0       0       0       0       0       0       0       0       
      +0       0
   462 ;;      Totals:         6       0       0       0       0       0       0       0       0       0       0       0       
      +0       0
   463 ;;Total ram usage:        6 bytes
   464 ;; Hardware stack levels used:    1
   465 ;; Hardware stack levels required when called:    2
   466 ;; This function calls:
   467 ;;		_fputc
   468 ;; This function is called by:
   469 ;;		_vfprintf
   470 ;; This function uses a non-reentrant model
   471 ;;
   472                           
   473                           	psect	text3
   474  000D12                     __ptext3:
   475                           	callstack 0
   476  000D12                     _vfpfcnvrt:
   477                           	callstack 26
   478  000D12                     
   479                           ;C:\Program Files\Microchip\xc8\v2.30\pic\sources\c99\common\doprnt.c: 692: static int v
      +                          fpfcnvrt(FILE *fp, char *fmt[], va_list ap);C:\Program Files\Microchip\xc8\v2.30\pic\sou
      +                          rces\c99\common\doprnt.c: 693: {;C:\Program Files\Microchip\xc8\v2.30\pic\sources\c99\co
      +                          mmon\doprnt.c: 694:     char c, *cp, ct[3];;C:\Program Files\Microchip\xc8\v2.30\pic\sou
      +                          rces\c99\common\doprnt.c: 695:     int done, i;;C:\Program Files\Microchip\xc8\v2.30\pic
      +                          \sources\c99\common\doprnt.c: 696:     long long ll;;C:\Program Files\Microchip\xc8\v2.3
      +                          0\pic\sources\c99\common\doprnt.c: 697:     unsigned long long llu;
   480  000D12  C035  FFD9         	movff	vfpfcnvrt@fmt,fsr2l
   481  000D16  C036  FFDA         	movff	vfpfcnvrt@fmt+1,fsr2h
   482  000D1A  CFDE FFF6          	movff	postinc2,tblptrl
   483  000D1E  CFDD FFF7          	movff	postdec2,tblptrh
   484  000D22                     	if	0	;tblptru may be non-zero
   485  000D22                     	endif
   486  000D22                     	if	0	;tblptru may be non-zero
   487  000D22                     	endif
   488  000D22  0008               	tblrd		*
   489  000D24  50F5               	movf	tablat,w,c
   490  000D26  0A25               	xorlw	37
   491  000D28  A4D8               	btfss	status,2,c
   492  000D2A  EF99  F006         	goto	u131
   493  000D2E  EF9B  F006         	goto	u130
   494  000D32                     u131:
   495  000D32  EFE2  F006         	goto	l887
   496  000D36                     u130:
   497  000D36                     
   498                           ;C:\Program Files\Microchip\xc8\v2.30\pic\sources\c99\common\doprnt.c: 703:         ++*f
      +                          mt;
   499  000D36  C035  FFD9         	movff	vfpfcnvrt@fmt,fsr2l
   500  000D3A  C036  FFDA         	movff	vfpfcnvrt@fmt+1,fsr2h
   501  000D3E  2ADE               	incf	postinc2,f,c
   502  000D40  0E00               	movlw	0
   503  000D42  22DD               	addwfc	postdec2,f,c
   504  000D44                     
   505                           ;C:\Program Files\Microchip\xc8\v2.30\pic\sources\c99\common\doprnt.c: 705:         flag
      +                          s = width = 0;
   506  000D44  0E00               	movlw	0
   507  000D46  6E24               	movwf	(_width+1)^0,c
   508  000D48  0E00               	movlw	0
   509  000D4A  6E23               	movwf	_width^0,c
   510  000D4C  C023  F027         	movff	_width,_flags
   511  000D50  C024  F028         	movff	_width+1,_flags+1
   512  000D54                     
   513                           ;C:\Program Files\Microchip\xc8\v2.30\pic\sources\c99\common\doprnt.c: 706:         prec
      +                           = -1;
   514  000D54  6825               	setf	_prec^0,c
   515  000D56  6826               	setf	(_prec+1)^0,c
   516  000D58                     
   517                           ;C:\Program Files\Microchip\xc8\v2.30\pic\sources\c99\common\doprnt.c: 1372:         if 
      +                          ((*fmt)[0] == '%') {
   518  000D58  C035  FFD9         	movff	vfpfcnvrt@fmt,fsr2l
   519  000D5C  C036  FFDA         	movff	vfpfcnvrt@fmt+1,fsr2h
   520  000D60  CFDE FFF6          	movff	postinc2,tblptrl
   521  000D64  CFDD FFF7          	movff	postdec2,tblptrh
   522  000D68                     	if	0	;tblptru may be non-zero
   523  000D68                     	endif
   524  000D68                     	if	0	;tblptru may be non-zero
   525  000D68                     	endif
   526  000D68  0008               	tblrd		*
   527  000D6A  50F5               	movf	tablat,w,c
   528  000D6C  0A25               	xorlw	37
   529  000D6E  A4D8               	btfss	status,2,c
   530  000D70  EFBC  F006         	goto	u141
   531  000D74  EFBE  F006         	goto	u140
   532  000D78                     u141:
   533  000D78  EFD5  F006         	goto	l881
   534  000D7C                     u140:
   535  000D7C                     
   536                           ;C:\Program Files\Microchip\xc8\v2.30\pic\sources\c99\common\doprnt.c: 1373:            
      +                           ++*fmt;
   537  000D7C  C035  FFD9         	movff	vfpfcnvrt@fmt,fsr2l
   538  000D80  C036  FFDA         	movff	vfpfcnvrt@fmt+1,fsr2h
   539  000D84  2ADE               	incf	postinc2,f,c
   540  000D86  0E00               	movlw	0
   541  000D88  22DD               	addwfc	postdec2,f,c
   542  000D8A                     
   543                           ;C:\Program Files\Microchip\xc8\v2.30\pic\sources\c99\common\doprnt.c: 1374:            
      +                           fputc((int)'%', fp);
   544  000D8A  0E00               	movlw	0
   545  000D8C  6E2B               	movwf	(fputc@c+1)^0,c
   546  000D8E  0E25               	movlw	37
   547  000D90  6E2A               	movwf	fputc@c^0,c
   548  000D92  C033  F02C         	movff	vfpfcnvrt@fp,fputc@fp
   549  000D96  C034  F02D         	movff	vfpfcnvrt@fp+1,fputc@fp+1
   550  000D9A  ECFE  F006         	call	_fputc	;wreg free
   551  000D9E                     l877:
   552                           
   553                           ;C:\Program Files\Microchip\xc8\v2.30\pic\sources\c99\common\doprnt.c: 1375:            
      +                           return 1;
   554  000D9E  0E00               	movlw	0
   555  000DA0  6E34               	movwf	(?_vfpfcnvrt+1)^0,c
   556  000DA2  0E01               	movlw	1
   557  000DA4  6E33               	movwf	?_vfpfcnvrt^0,c
   558  000DA6  EFFD  F006         	goto	l743
   559  000DAA                     l881:
   560                           
   561                           ;C:\Program Files\Microchip\xc8\v2.30\pic\sources\c99\common\doprnt.c: 1379:         ++*
      +                          fmt;
   562  000DAA  C035  FFD9         	movff	vfpfcnvrt@fmt,fsr2l
   563  000DAE  C036  FFDA         	movff	vfpfcnvrt@fmt+1,fsr2h
   564  000DB2  2ADE               	incf	postinc2,f,c
   565  000DB4  0E00               	movlw	0
   566  000DB6  22DD               	addwfc	postdec2,f,c
   567  000DB8                     
   568                           ;C:\Program Files\Microchip\xc8\v2.30\pic\sources\c99\common\doprnt.c: 1380:         ret
      +                          urn 0;
   569  000DB8  0E00               	movlw	0
   570  000DBA  6E34               	movwf	(?_vfpfcnvrt+1)^0,c
   571  000DBC  0E00               	movlw	0
   572  000DBE  6E33               	movwf	?_vfpfcnvrt^0,c
   573  000DC0  EFFD  F006         	goto	l743
   574  000DC4                     l887:
   575                           
   576                           ;C:\Program Files\Microchip\xc8\v2.30\pic\sources\c99\common\doprnt.c: 1384:     fputc((
      +                          int)(*fmt)[0], fp);
   577  000DC4  C035  FFD9         	movff	vfpfcnvrt@fmt,fsr2l
   578  000DC8  C036  FFDA         	movff	vfpfcnvrt@fmt+1,fsr2h
   579  000DCC  CFDE FFF6          	movff	postinc2,tblptrl
   580  000DD0  CFDD FFF7          	movff	postdec2,tblptrh
   581  000DD4                     	if	0	;tblptru may be non-zero
   582  000DD4                     	endif
   583  000DD4                     	if	0	;tblptru may be non-zero
   584  000DD4                     	endif
   585  000DD4  0008               	tblrd		*
   586  000DD6  50F5               	movf	tablat,w,c
   587  000DD8  6E2A               	movwf	fputc@c^0,c
   588  000DDA  6A2B               	clrf	(fputc@c+1)^0,c
   589  000DDC  C033  F02C         	movff	vfpfcnvrt@fp,fputc@fp
   590  000DE0  C034  F02D         	movff	vfpfcnvrt@fp+1,fputc@fp+1
   591  000DE4  ECFE  F006         	call	_fputc	;wreg free
   592  000DE8                     
   593                           ;C:\Program Files\Microchip\xc8\v2.30\pic\sources\c99\common\doprnt.c: 1385:     ++*fmt;
   594  000DE8  C035  FFD9         	movff	vfpfcnvrt@fmt,fsr2l
   595  000DEC  C036  FFDA         	movff	vfpfcnvrt@fmt+1,fsr2h
   596  000DF0  2ADE               	incf	postinc2,f,c
   597  000DF2  0E00               	movlw	0
   598  000DF4  22DD               	addwfc	postdec2,f,c
   599  000DF6  EFCF  F006         	goto	l877
   600  000DFA                     l743:
   601  000DFA  0012               	return		;funcret
   602  000DFC                     __end_of_vfpfcnvrt:
   603                           	callstack 0
   604                           
   605 ;; *************** function _fputc *****************
   606 ;; Defined at:
   607 ;;		line 8 in file "C:\Program Files\Microchip\xc8\v2.30\pic\sources\c99\common\nf_fputc.c"
   608 ;; Parameters:    Size  Location     Type
   609 ;;  c               2    1[COMRAM] int 
   610 ;;  fp              2    3[COMRAM] PTR struct _IO_FILE
   611 ;;		 -> NULL(0), 
   612 ;; Auto vars:     Size  Location     Type
   613 ;;		None
   614 ;; Return value:  Size  Location     Type
   615 ;;                  2    1[COMRAM] int 
   616 ;; Registers used:
   617 ;;		wreg, fsr1l, fsr1h, fsr2l, fsr2h, status,2, status,0, cstack
   618 ;; Tracked objects:
   619 ;;		On entry : 0/0
   620 ;;		On exit  : 0/0
   621 ;;		Unchanged: 0/0
   622 ;; Data sizes:     COMRAM   BANK0   BANK1   BANK2   BANK3   BANK4   BANK5   BANK6   BANK7   BANK8   BANK9  BANK10  BANK1
      +1  BANK12
   623 ;;      Params:         4       0       0       0       0       0       0       0       0       0       0       0       
      +0       0
   624 ;;      Locals:         0       0       0       0       0       0       0       0       0       0       0       0       
      +0       0
   625 ;;      Temps:          5       0       0       0       0       0       0       0       0       0       0       0       
      +0       0
   626 ;;      Totals:         9       0       0       0       0       0       0       0       0       0       0       0       
      +0       0
   627 ;;Total ram usage:        9 bytes
   628 ;; Hardware stack levels used:    1
   629 ;; Hardware stack levels required when called:    1
   630 ;; This function calls:
   631 ;;		_putch
   632 ;; This function is called by:
   633 ;;		_vfpfcnvrt
   634 ;; This function uses a non-reentrant model
   635 ;;
   636                           
   637                           	psect	text4
   638  000DFC                     __ptext4:
   639                           	callstack 0
   640  000DFC                     _fputc:
   641                           	callstack 26
   642  000DFC  502C               	movf	fputc@fp^0,w,c
   643  000DFE  102D               	iorwf	(fputc@fp+1)^0,w,c
   644  000E00  B4D8               	btfsc	status,2,c
   645  000E02  EF05  F007         	goto	u91
   646  000E06  EF07  F007         	goto	u90
   647  000E0A                     u91:
   648  000E0A  EF10  F007         	goto	l853
   649  000E0E                     u90:
   650  000E0E  502C               	movf	fputc@fp^0,w,c
   651  000E10  102D               	iorwf	(fputc@fp+1)^0,w,c
   652  000E12  A4D8               	btfss	status,2,c
   653  000E14  EF0E  F007         	goto	u101
   654  000E18  EF10  F007         	goto	u100
   655  000E1C                     u101:
   656  000E1C  EF15  F007         	goto	l855
   657  000E20                     u100:
   658  000E20                     l853:
   659  000E20  502A               	movf	fputc@c^0,w,c
   660  000E22  ECB0  F007         	call	_putch
   661  000E26  EF48  F007         	goto	l761
   662  000E2A                     l855:
   663  000E2A  EE20 F004          	lfsr	2,4
   664  000E2E  502C               	movf	fputc@fp^0,w,c
   665  000E30  26D9               	addwf	fsr2l,f,c
   666  000E32  502D               	movf	(fputc@fp+1)^0,w,c
   667  000E34  22DA               	addwfc	fsr2h,f,c
   668  000E36  50DE               	movf	postinc2,w,c
   669  000E38  10DE               	iorwf	postinc2,w,c
   670  000E3A  B4D8               	btfsc	status,2,c
   671  000E3C  EF22  F007         	goto	u111
   672  000E40  EF24  F007         	goto	u110
   673  000E44                     u111:
   674  000E44  EF3F  F007         	goto	l859
   675  000E48                     u110:
   676  000E48  EE20 F004          	lfsr	2,4
   677  000E4C  502C               	movf	fputc@fp^0,w,c
   678  000E4E  26D9               	addwf	fsr2l,f,c
   679  000E50  502D               	movf	(fputc@fp+1)^0,w,c
   680  000E52  22DA               	addwfc	fsr2h,f,c
   681  000E54  EE10 F002          	lfsr	1,2
   682  000E58  502C               	movf	fputc@fp^0,w,c
   683  000E5A  26E1               	addwf	fsr1l,f,c
   684  000E5C  502D               	movf	(fputc@fp+1)^0,w,c
   685  000E5E  22E2               	addwfc	fsr1h,f,c
   686  000E60  50DE               	movf	postinc2,w,c
   687  000E62  5CE6               	subwf	postinc1,w,c
   688  000E64  50E6               	movf	postinc1,w,c
   689  000E66  0A80               	xorlw	128
   690  000E68  6E32               	movwf	(??_fputc+4)^0,c
   691  000E6A  50DE               	movf	postinc2,w,c
   692  000E6C  0A80               	xorlw	128
   693  000E6E  5832               	subwfb	(??_fputc+4)^0,w,c
   694  000E70  B0D8               	btfsc	status,0,c
   695  000E72  EF3D  F007         	goto	u121
   696  000E76  EF3F  F007         	goto	u120
   697  000E7A                     u121:
   698  000E7A  EF48  F007         	goto	l761
   699  000E7E                     u120:
   700  000E7E                     l859:
   701  000E7E  EE20 F002          	lfsr	2,2
   702  000E82  502C               	movf	fputc@fp^0,w,c
   703  000E84  26D9               	addwf	fsr2l,f,c
   704  000E86  502D               	movf	(fputc@fp+1)^0,w,c
   705  000E88  22DA               	addwfc	fsr2h,f,c
   706  000E8A  2ADE               	incf	postinc2,f,c
   707  000E8C  0E00               	movlw	0
   708  000E8E  22DD               	addwfc	postdec2,f,c
   709  000E90                     l761:
   710  000E90  0012               	return		;funcret
   711  000E92                     __end_of_fputc:
   712                           	callstack 0
   713                           
   714 ;; *************** function _putch *****************
   715 ;; Defined at:
   716 ;;		line 15 in file "./UART.h"
   717 ;; Parameters:    Size  Location     Type
   718 ;;  data            1    wreg     unsigned char 
   719 ;; Auto vars:     Size  Location     Type
   720 ;;  data            1    0[COMRAM] unsigned char 
   721 ;; Return value:  Size  Location     Type
   722 ;;                  1    wreg      void 
   723 ;; Registers used:
   724 ;;		wreg
   725 ;; Tracked objects:
   726 ;;		On entry : 0/0
   727 ;;		On exit  : 0/0
   728 ;;		Unchanged: 0/0
   729 ;; Data sizes:     COMRAM   BANK0   BANK1   BANK2   BANK3   BANK4   BANK5   BANK6   BANK7   BANK8   BANK9  BANK10  BANK1
      +1  BANK12
   730 ;;      Params:         0       0       0       0       0       0       0       0       0       0       0       0       
      +0       0
   731 ;;      Locals:         1       0       0       0       0       0       0       0       0       0       0       0       
      +0       0
   732 ;;      Temps:          0       0       0       0       0       0       0       0       0       0       0       0       
      +0       0
   733 ;;      Totals:         1       0       0       0       0       0       0       0       0       0       0       0       
      +0       0
   734 ;;Total ram usage:        1 bytes
   735 ;; Hardware stack levels used:    1
   736 ;; This function calls:
   737 ;;		Nothing
   738 ;; This function is called by:
   739 ;;		_fputc
   740 ;; This function uses a non-reentrant model
   741 ;;
   742                           
   743                           	psect	text5
   744  000F60                     __ptext5:
   745                           	callstack 0
   746  000F60                     _putch:
   747                           	callstack 26
   748                           
   749                           ;incstack = 0
   750                           ;putch@data stored from wreg
   751  000F60  6E29               	movwf	putch@data^0,c
   752  000F62                     l18:
   753                           
   754                           ;./UART.h: 18:     while(!PIR1bits.TXIF)
   755  000F62  A89E               	btfss	158,4,c	;volatile
   756  000F64  EFB6  F007         	goto	u11
   757  000F68  EFB8  F007         	goto	u10
   758  000F6C                     u11:
   759  000F6C  EFB1  F007         	goto	l18
   760  000F70                     u10:
   761  000F70                     
   762                           ;./UART.h: 20:     TXREG = data;
   763  000F70  C029  FFAD         	movff	putch@data,4013	;volatile
   764  000F74  0012               	return		;funcret
   765  000F76                     __end_of_putch:
   766                           	callstack 0
   767                           
   768 ;; *************** function _init_uart *****************
   769 ;; Defined at:
   770 ;;		line 8 in file "./UART.h"
   771 ;; Parameters:    Size  Location     Type
   772 ;;		None
   773 ;; Auto vars:     Size  Location     Type
   774 ;;		None
   775 ;; Return value:  Size  Location     Type
   776 ;;                  1    wreg      void 
   777 ;; Registers used:
   778 ;;		None
   779 ;; Tracked objects:
   780 ;;		On entry : 0/0
   781 ;;		On exit  : 0/0
   782 ;;		Unchanged: 0/0
   783 ;; Data sizes:     COMRAM   BANK0   BANK1   BANK2   BANK3   BANK4   BANK5   BANK6   BANK7   BANK8   BANK9  BANK10  BANK1
      +1  BANK12
   784 ;;      Params:         0       0       0       0       0       0       0       0       0       0       0       0       
      +0       0
   785 ;;      Locals:         0       0       0       0       0       0       0       0       0       0       0       0       
      +0       0
   786 ;;      Temps:          0       0       0       0       0       0       0       0       0       0       0       0       
      +0       0
   787 ;;      Totals:         0       0       0       0       0       0       0       0       0       0       0       0       
      +0       0
   788 ;;Total ram usage:        0 bytes
   789 ;; Hardware stack levels used:    1
   790 ;; This function calls:
   791 ;;		Nothing
   792 ;; This function is called by:
   793 ;;		_main
   794 ;; This function uses a non-reentrant model
   795 ;;
   796                           
   797                           	psect	text6
   798  000F76                     __ptext6:
   799                           	callstack 0
   800  000F76                     _init_uart:
   801                           	callstack 30
   802  000F76                     
   803                           ;./UART.h: 11:     TXSTAbits.TXEN = 1;
   804  000F76  8AAC               	bsf	172,5,c	;volatile
   805                           
   806                           ;./UART.h: 12:     RCSTAbits.SPEN = 1;
   807  000F78  8EAB               	bsf	171,7,c	;volatile
   808  000F7A  0012               	return		;funcret
   809  000F7C                     __end_of_init_uart:
   810                           	callstack 0
   811                           
   812                           	psect	rparam
   813  0000                     
   814                           	psect	idloc
   815                           
   816                           ;Config register IDLOC0 @ 0x200000
   817                           ;	unspecified, using default values
   818  200000                     	org	2097152
   819  200000  FF                 	db	255
   820                           
   821                           ;Config register IDLOC1 @ 0x200001
   822                           ;	unspecified, using default values
   823  200001                     	org	2097153
   824  200001  FF                 	db	255
   825                           
   826                           ;Config register IDLOC2 @ 0x200002
   827                           ;	unspecified, using default values
   828  200002                     	org	2097154
   829  200002  FF                 	db	255
   830                           
   831                           ;Config register IDLOC3 @ 0x200003
   832                           ;	unspecified, using default values
   833  200003                     	org	2097155
   834  200003  FF                 	db	255
   835                           
   836                           ;Config register IDLOC4 @ 0x200004
   837                           ;	unspecified, using default values
   838  200004                     	org	2097156
   839  200004  FF                 	db	255
   840                           
   841                           ;Config register IDLOC5 @ 0x200005
   842                           ;	unspecified, using default values
   843  200005                     	org	2097157
   844  200005  FF                 	db	255
   845                           
   846                           ;Config register IDLOC6 @ 0x200006
   847                           ;	unspecified, using default values
   848  200006                     	org	2097158
   849  200006  FF                 	db	255
   850                           
   851                           ;Config register IDLOC7 @ 0x200007
   852                           ;	unspecified, using default values
   853  200007                     	org	2097159
   854  200007  FF                 	db	255
   855                           
   856                           	psect	config
   857                           
   858                           ; Padding undefined space
   859  300000                     	org	3145728
   860  300000  FF                 	db	255
   861                           
   862                           ;Config register CONFIG1H @ 0x300001
   863                           ;	Oscillator Selection bits
   864                           ;	OSC = HS, HS oscillator
   865                           ;	Fail-Safe Clock Monitor Enable bit
   866                           ;	FCMEN = OFF, Fail-Safe Clock Monitor disabled
   867                           ;	Internal/External Oscillator Switchover bit
   868                           ;	IESO = OFF, Oscillator Switchover mode disabled
   869  300001                     	org	3145729
   870  300001  02                 	db	2
   871                           
   872                           ;Config register CONFIG2L @ 0x300002
   873                           ;	Power-up Timer Enable bit
   874                           ;	PWRT = OFF, PWRT disabled
   875                           ;	Brown-out Reset Enable bits
   876                           ;	BOREN = BOHW, Brown-out Reset enabled in hardware only (SBOREN is disabled)
   877                           ;	Brown-out Reset Voltage bits
   878                           ;	BORV = 3, VBOR set to 2.1V
   879  300002                     	org	3145730
   880  300002  1F                 	db	31
   881                           
   882                           ;Config register CONFIG2H @ 0x300003
   883                           ;	Watchdog Timer Enable bit
   884                           ;	WDT = OFF, WDT disabled (control is placed on the SWDTEN bit)
   885                           ;	Watchdog Timer Postscale Select bits
   886                           ;	WDTPS = 32768, 1:32768
   887  300003                     	org	3145731
   888  300003  1E                 	db	30
   889                           
   890                           ; Padding undefined space
   891  300004                     	org	3145732
   892  300004  FF                 	db	255
   893                           
   894                           ;Config register CONFIG3H @ 0x300005
   895                           ;	PORTB A/D Enable bit
   896                           ;	PBADEN = OFF, PORTB<4:0> pins are configured as digital I/O on Reset
   897                           ;	Low-Power Timer 1 Oscillator Enable bit
   898                           ;	LPT1OSC = OFF, Timer1 configured for higher power operation
   899                           ;	MCLR Pin Enable bit
   900                           ;	MCLRE = ON, MCLR pin enabled; RE3 input pin disabled
   901  300005                     	org	3145733
   902  300005  80                 	db	128
   903                           
   904                           ;Config register CONFIG4L @ 0x300006
   905                           ;	Stack Full/Underflow Reset Enable bit
   906                           ;	STVREN = OFF, Stack full/underflow will not cause Reset
   907                           ;	Single-Supply ICSP Enable bit
   908                           ;	LVP = OFF, Single-Supply ICSP disabled
   909                           ;	Boot Block Size Select bits
   910                           ;	BBSIZ = 1024, 1K words (2K bytes) Boot Block
   911                           ;	Extended Instruction Set Enable bit
   912                           ;	XINST = OFF, Instruction set extension and Indexed Addressing mode disabled (Legacy mo
      +                          de)
   913                           ;	Background Debugger Enable bit
   914                           ;	DEBUG = 0x1, unprogrammed default
   915  300006                     	org	3145734
   916  300006  80                 	db	128
   917                           
   918                           ; Padding undefined space
   919  300007                     	org	3145735
   920  300007  FF                 	db	255
   921                           
   922                           ;Config register CONFIG5L @ 0x300008
   923                           ;	Code Protection bit
   924                           ;	CP0 = OFF, Block 0 (000800-003FFFh) not code-protected
   925                           ;	Code Protection bit
   926                           ;	CP1 = OFF, Block 1 (004000-007FFFh) not code-protected
   927                           ;	Code Protection bit
   928                           ;	CP2 = OFF, Block 2 (008000-00BFFFh) not code-protected
   929                           ;	Code Protection bit
   930                           ;	CP3 = OFF, Block 3 (00C000-00FFFFh) not code-protected
   931                           ;	Code Protection bit
   932                           ;	CP4 = OFF, Block 4 (010000-013FFFh) not code-protected
   933                           ;	Code Protection bit
   934                           ;	CP5 = OFF, Block 5 (014000-017FFFh) not code-protected
   935  300008                     	org	3145736
   936  300008  3F                 	db	63
   937                           
   938                           ;Config register CONFIG5H @ 0x300009
   939                           ;	Boot Block Code Protection bit
   940                           ;	CPB = OFF, Boot block (000000-0007FFh) not code-protected
   941                           ;	Data EEPROM Code Protection bit
   942                           ;	CPD = OFF, Data EEPROM not code-protected
   943  300009                     	org	3145737
   944  300009  C0                 	db	192
   945                           
   946                           ;Config register CONFIG6L @ 0x30000A
   947                           ;	Write Protection bit
   948                           ;	WRT0 = OFF, Block 0 (000800-003FFFh) not write-protected
   949                           ;	Write Protection bit
   950                           ;	WRT1 = OFF, Block 1 (004000-007FFFh) not write-protected
   951                           ;	Write Protection bit
   952                           ;	WRT2 = OFF, Block 2 (008000-00BFFFh) not write-protected
   953                           ;	Write Protection bit
   954                           ;	WRT3 = OFF, Block 3 (00C000-00FFFFh) not write-protected
   955                           ;	Write Protection bit
   956                           ;	WRT4 = OFF, Block 4 (010000-013FFFh) not write-protected
   957                           ;	Write Protection bit
   958                           ;	WRT5 = OFF, Block 5 (014000-017FFFh) not write-protected
   959  30000A                     	org	3145738
   960  30000A  3F                 	db	63
   961                           
   962                           ;Config register CONFIG6H @ 0x30000B
   963                           ;	Configuration Register Write Protection bit
   964                           ;	WRTC = OFF, Configuration registers (300000-3000FFh) not write-protected
   965                           ;	Boot Block Write Protection bit
   966                           ;	WRTB = OFF, Boot block (000000-0007FFh) not write-protected
   967                           ;	Data EEPROM Write Protection bit
   968                           ;	WRTD = OFF, Data EEPROM not write-protected
   969  30000B                     	org	3145739
   970  30000B  E0                 	db	224
   971                           
   972                           ;Config register CONFIG7L @ 0x30000C
   973                           ;	Table Read Protection bit
   974                           ;	EBTR0 = OFF, Block 0 (000800-003FFFh) not protected from table reads executed in other
      +                           blocks
   975                           ;	Table Read Protection bit
   976                           ;	EBTR1 = OFF, Block 1 (004000-007FFFh) not protected from table reads executed in other
      +                           blocks
   977                           ;	Table Read Protection bit
   978                           ;	EBTR2 = OFF, Block 2 (008000-00BFFFh) not protected from table reads executed in other
      +                           blocks
   979                           ;	Table Read Protection bit
   980                           ;	EBTR3 = OFF, Block 3 (00C000-00FFFFh) not protected from table reads executed in other
      +                           blocks
   981                           ;	Table Read Protection bit
   982                           ;	EBTR4 = OFF, Block 4 (010000-013FFFh) not protected from table reads executed in other
      +                           blocks
   983                           ;	Table Read Protection bit
   984                           ;	EBTR5 = OFF, Block 5 (014000-017FFFh) not protected from table reads executed in other
      +                           blocks
   985  30000C                     	org	3145740
   986  30000C  3F                 	db	63
   987                           
   988                           ;Config register CONFIG7H @ 0x30000D
   989                           ;	Boot Block Table Read Protection bit
   990                           ;	EBTRB = OFF, Boot block (000000-0007FFh) not protected from table reads executed in ot
      +                          her blocks
   991  30000D                     	org	3145741
   992  30000D  40                 	db	64
   993                           tosu	equ	0xFFF
   994                           tosh	equ	0xFFE
   995                           tosl	equ	0xFFD
   996                           stkptr	equ	0xFFC
   997                           pclatu	equ	0xFFB
   998                           pclath	equ	0xFFA
   999                           pcl	equ	0xFF9
  1000                           tblptru	equ	0xFF8
  1001                           tblptrh	equ	0xFF7
  1002                           tblptrl	equ	0xFF6
  1003                           tablat	equ	0xFF5
  1004                           prodh	equ	0xFF4
  1005                           prodl	equ	0xFF3
  1006                           indf0	equ	0xFEF
  1007                           postinc0	equ	0xFEE
  1008                           postdec0	equ	0xFED
  1009                           preinc0	equ	0xFEC
  1010                           plusw0	equ	0xFEB
  1011                           fsr0h	equ	0xFEA
  1012                           fsr0l	equ	0xFE9
  1013                           wreg	equ	0xFE8
  1014                           indf1	equ	0xFE7
  1015                           postinc1	equ	0xFE6
  1016                           postdec1	equ	0xFE5
  1017                           preinc1	equ	0xFE4
  1018                           plusw1	equ	0xFE3
  1019                           fsr1h	equ	0xFE2
  1020                           fsr1l	equ	0xFE1
  1021                           bsr	equ	0xFE0
  1022                           indf2	equ	0xFDF
  1023                           postinc2	equ	0xFDE
  1024                           postdec2	equ	0xFDD
  1025                           preinc2	equ	0xFDC
  1026                           plusw2	equ	0xFDB
  1027                           fsr2h	equ	0xFDA
  1028                           fsr2l	equ	0xFD9
  1029                           status	equ	0xFD8

Data Sizes:
    Strings     15
    Constant    0
    Data        0
    BSS         40
    Persistent  0
    Stack       0

Auto Spaces:
    Space          Size  Autos    Used
    COMRAM           95     32      72
    BANK0           160      0       0
    BANK1           256      0       0
    BANK2           256      0       0
    BANK3           256      0       0
    BANK4           256      0       0
    BANK5           256      0       0
    BANK6           256      0       0
    BANK7           256      0       0
    BANK8           256      0       0
    BANK9           256      0       0
    BANK10          256      0       0
    BANK11          256      0       0
    BANK12          256      0       0

Pointer List with Targets:

    vfpfcnvrt@ap	PTR PTR void  size(2) Largest target is 2
		 -> printf@ap(COMRAM[2]), 

    S647_IO_FILE$buffer	PTR unsigned char  size(2) Largest target is 0

    fputc@fp.buffer	PTR unsigned char  size(2) Largest target is 0

    fputc@fp	PTR struct _IO_FILE size(2) Largest target is 0
		 -> NULL(NULL[0]), 

    vfprintf@ap	PTR PTR void  size(2) Largest target is 2
		 -> printf@ap(COMRAM[2]), 

    vfprintf@fp	PTR struct _IO_FILE size(2) Largest target is 0
		 -> NULL(NULL[0]), 

    vfprintf@fmt	PTR const unsigned char  size(2) Largest target is 15
		 -> STR_1(CODE[15]), 

    vfprintf@cfmt	PTR unsigned char  size(2) Largest target is 15
		 -> STR_1(CODE[15]), 

    vfpfcnvrt@fp	PTR struct _IO_FILE size(2) Largest target is 0
		 -> NULL(NULL[0]), 

    vfpfcnvrt@fmt	PTR PTR unsigned char  size(2) Largest target is 2
		 -> vfprintf@cfmt(COMRAM[2]), 

    printf@fmt	PTR const unsigned char  size(2) Largest target is 15
		 -> STR_1(CODE[15]), 

    printf@ap	PTR void [1] size(2) Largest target is 2
		 -> ?_printf(COMRAM[2]), 


Critical Paths under _main in COMRAM

    _main->_printf
    _printf->_vfprintf
    _vfprintf->_vfpfcnvrt
    _vfpfcnvrt->_fputc
    _fputc->_putch

Critical Paths under _main in BANK0

    None.

Critical Paths under _main in BANK1

    None.

Critical Paths under _main in BANK2

    None.

Critical Paths under _main in BANK3

    None.

Critical Paths under _main in BANK4

    None.

Critical Paths under _main in BANK5

    None.

Critical Paths under _main in BANK6

    None.

Critical Paths under _main in BANK7

    None.

Critical Paths under _main in BANK8

    None.

Critical Paths under _main in BANK9

    None.

Critical Paths under _main in BANK10

    None.

Critical Paths under _main in BANK11

    None.

Critical Paths under _main in BANK12

    None.

Call Graph Tables:

 ---------------------------------------------------------------------------------
 (Depth) Function   	        Calls       Base Space   Used Autos Params    Refs
 ---------------------------------------------------------------------------------
 (0) _main                                                 2     2      0    1635
                                             30 COMRAM     2     2      0
                          _init_uart
                             _printf
 ---------------------------------------------------------------------------------
 (1) _printf                                               6     4      2    1635
                                             24 COMRAM     6     4      2
                           _vfprintf
 ---------------------------------------------------------------------------------
 (2) _vfprintf                                             8     2      6    1507
                                             16 COMRAM     8     2      6
                          _vfpfcnvrt
 ---------------------------------------------------------------------------------
 (3) _vfpfcnvrt                                           40    34      6    1157
                                             10 COMRAM     6     0      6
                              _fputc
 ---------------------------------------------------------------------------------
 (4) _fputc                                                9     5      4     731
                                              1 COMRAM     9     5      4
                              _putch
 ---------------------------------------------------------------------------------
 (5) _putch                                                1     1      0      15
                                              0 COMRAM     1     1      0
 ---------------------------------------------------------------------------------
 (1) _init_uart                                            0     0      0       0
 ---------------------------------------------------------------------------------
 Estimated maximum stack depth 5
 ---------------------------------------------------------------------------------

 Call Graph Graphs:

 _main (ROOT)
   _init_uart
   _printf
     _vfprintf
       _vfpfcnvrt
         _fputc
           _putch

 Address spaces:
Name               Size   Autos  Total    Cost      Usage
BIGRAM             CFF      0       0      31        0.0%
EEDATA             400      0       0       0        0.0%
BITBANK12          100      0       0      29        0.0%
BANK12             100      0       0      30        0.0%
BITBANK11          100      0       0      27        0.0%
BANK11             100      0       0      28        0.0%
BITBANK10          100      0       0      25        0.0%
BANK10             100      0       0      26        0.0%
BITBANK9           100      0       0      23        0.0%
BANK9              100      0       0      24        0.0%
BITBANK8           100      0       0      21        0.0%
BANK8              100      0       0      22        0.0%
BITBANK7           100      0       0      18        0.0%
BANK7              100      0       0      19        0.0%
BITBANK6           100      0       0      16        0.0%
BANK6              100      0       0      17        0.0%
BITBANK5           100      0       0      14        0.0%
BANK5              100      0       0      15        0.0%
BITBANK4           100      0       0      12        0.0%
BANK4              100      0       0      13        0.0%
BITBANK3           100      0       0      10        0.0%
BANK3              100      0       0      11        0.0%
BITBANK2           100      0       0       8        0.0%
BANK2              100      0       0       9        0.0%
BITBANK1           100      0       0       6        0.0%
BANK1              100      0       0       7        0.0%
BITBANK0            A0      0       0       4        0.0%
BANK0               A0      0       0       5        0.0%
BITCOMRAM           5F      0       0       0        0.0%
COMRAM              5F     20      48       1       75.8%
BITSFR_3             0      0       0     200        0.0%
SFR_3                0      0       0     200        0.0%
BITSFR_2             0      0       0     200        0.0%
SFR_2                0      0       0     200        0.0%
BITSFR_1             0      0       0     200        0.0%
SFR_1                0      0       0     200        0.0%
BITSFR               0      0       0     200        0.0%
SFR                  0      0       0     200        0.0%
STACK                0      0       0       2        0.0%
NULL                 0      0       0       0        0.0%
ABS                  0      0      48      20        0.0%
DATA                 0      0      48       3        0.0%
CODE                 0      0       0       0        0.0%


Microchip Technology PIC18 Macro Assembler V2.30 build 20200825195618 
Symbol Table                                                                                   Wed Oct 14 11:05:38 2020

                     l21 0F74                       l15 0F7A                       l18 0F62  
                     u10 0F70                       u11 0F6C                       u90 0E0E  
                     u91 0E0A                      l710 0F44                      l901 0ECA  
                    l743 0DFA                      l903 0F20                      l911 0EF4  
                    l761 0E90                      l905 0F28                      l913 0F00  
                    l835 0F76                      l851 0E0E                      l748 0EE6  
                    l853 0E20                      l749 0EEE                      l909 0EF0  
                    l855 0E2A                      l871 0D58                      l863 0D12  
                    l777 0F62                      l857 0E48                      l849 0DFC  
                    l873 0D7C                      l881 0DAA                      l865 0D36  
                    l779 0F70                      l859 0E7E                      l883 0DB8  
                    l875 0D8A                      l867 0D44                      l877 0D9E  
                    l869 0D54                      l887 0DC4                      l895 0E92  
                    l889 0DE8                      l897 0E9A                      l899 0EA6  
                    u100 0E20                      u101 0E1C                      u110 0E48  
                    u111 0E44                      u120 0E7E                      u121 0E7A  
                    u130 0D36                      u131 0D32                      u140 0D7C  
                    u141 0D78                      u150 0EE6                      u151 0EE2  
                    u167 0F0A                      wreg 000FE8                     STR_1 0D01  
                   _dbuf 0001                     _main 0EF0                     _prec 0025  
                   _nout 0021                     fsr1h 000FE2                     fsr2h 000FDA  
                   fsr1l 000FE1                     fsr2l 000FD9                     start 0000  
           ___param_bank 000000                    ?_main 0029             vfpfcnvrt@fmt 0035  
                  _TXREG 000FAD                    _flags 0027                    _fputc 0DFC  
                  _width 0023                    _putch 0F60                    tablat 000FF5  
                  status 000FD8          __initialization 0F46             __end_of_main 0F20  
                 ??_main 0047            __activetblptr 000001                   ?_fputc 002A  
                 ?_putch 0029             vfprintf@cfmt 003F                   clear_0 0F4C  
                 _printf 0F20                   fputc@c 002A             __mediumconst 0000  
                 tblptrh 000FF7                   tblptrl 000FF6                   tblptru 000FF8  
       __end_of_vfprintf 0EF0               __accesstop 0060  __end_of__initialization 0F52  
          ___rparam_used 000001           __pcstackCOMRAM 0029            __end_of_fputc 0E92  
          __end_of_putch 0F76                  ??_fputc 002E                  ??_putch 0029  
     __size_of_init_uart 0006                  ?_printf 0041       __size_of_vfpfcnvrt 00EA  
                __Hparam 0000                  __Lparam 0000                ?_vfprintf 0039  
           __psmallconst 0D00                  __pcinit 0F46                  __ramtop 0D00  
                __ptext0 0EF0                  __ptext1 0F20                  __ptext2 0E92  
                __ptext3 0D12                  __ptext4 0DFC                  __ptext5 0F60  
                __ptext6 0F76          __size_of_printf 0026        __end_of_init_uart 0F7C  
   end_of_initialization 0F52                  fputc@fp 002C        __end_of_vfpfcnvrt 0DFC  
              _RCSTAbits 000FAB                  postdec2 000FDD                  postinc0 000FEE  
                postinc1 000FE6                  postinc2 000FDE               ??_vfprintf 003F  
              _TXSTAbits 000FAC              vfpfcnvrt@ap 0037              vfpfcnvrt@fp 0033  
         __end_of_printf 0F46      start_initialization 0F46              vfprintf@fmt 003B  
               ??_printf 0043              __pbssCOMRAM 0001        __size_of_vfprintf 005E  
            __smallconst 0D00                _init_uart 0F76           __size_of_fputc 0096  
         __size_of_putch 0016                 _PIR1bits 000F9E                _vfpfcnvrt 0D12  
             ?_init_uart 0029                 __Hrparam 0000               vfprintf@ap 003D  
               __Lrparam 0000               vfprintf@fp 0039             __Lsmallconst 0D00  
             ?_vfpfcnvrt 0033            __size_of_main 0030                 _vfprintf 0E92  
              printf@fmt 0041                putch@data 0029              ??_init_uart 0029  
               printf@ap 0045              ??_vfpfcnvrt 0039  
